:100000000C9463000C948B000C948B000C948B006C
:100010000C948B000C948B000C948B000C94681542
:100020000C948B000C948B000C948B000C948B0024
:100030000C948B000C948B000C948B000C948B0014
:100040000C941E150C948B000C94EA150C94C4159A
:100050000C948B000C948B000C948B000C948B00F4
:100060000C948B000C948B000000000023002600F1
:10007000290000000008000201000003040700003E
:100080000000000000000200000000250028002BF6
:100090000000000000240027002A000102040810CC
:1000A00020408001020408102001020408102004EE
:1000B000040404040404040202020202020303030F
:1000C000030303001C1611241FBECFEFD8E0DEBFD0
:1000D000CDBF12E0A0E0B1E0E4E2FAE302C0059097
:1000E0000D92A039B107D9F723E0A0E9B2E001C031
:1000F0001D92A13DB207E1F710E0C3E6D0E004C0D5
:100100002197FE010E94DE1BC236D107C9F70E946B
:10011000C2160C94101D0C9400008CBD9DBD08955A
:10012000FC01818D928D08950895833081F028F42B
:10013000813099F08230A9F008958730A9F0883095
:10014000C9F08430B1F4809180008F7D03C080912C
:1001500080008F7780938000089584B58F7784BD69
:10016000089584B58F7DFBCF8091B0008F77809309
:10017000B00008958091B0008F7DF9CF1F93CF9389
:10018000DF93282F30E0F901EE58FF4F8491F901F9
:10019000E556FF4FD491F901E155FF4FC491CC23AF
:1001A000A9F0162F81110E949500EC2FF0E0EE0FC0
:1001B000FF1FE957FF4FA591B4918FB7F894EC91C9
:1001C000111108C0D095DE23DC938FBFDF91CF9152
:1001D0001F910895DE2BF8CFCF93DF9390E0FC01C1
:1001E000E556FF4F249181559F4FFC018491882350
:1001F000D1F090E0880F991FFC01EF56FF4FA591B9
:10020000B491FC01E957FF4FC591D49161110EC023
:100210009FB7F8948C91E22FE0958E238C932881E0
:10022000E223E8839FBFDF91CF9108958FB7F894C1
:10023000EC91E22BEC938FBFF6CF0F931F93CF93EC
:100240008B0190911101891731F09F3FC1F1CF913E
:100250001F910F910895E6E8F0E0C491C7FDF7CF34
:1002600061E00E94EC00CC2319F0C23009F0ADC06F
:10027000980150E040E060E472E48FE090E00E947A
:100280006119BA01A9014150510961097109C111EE
:100290008FC085B5887F826085BD47BD8FEF9FEF9A
:1002A000DC018093CE029093CF02A093D002B09352
:1002B000D10280916E00826080936E00C8CF8093DF
:1002C0001101E6E8F0E0C491CF3F09F4C0CFC1309E
:1002D00039F148F0C23009F445C0C7FDB8CF61E03C
:1002E0000E94EC00C2CF14BC15BC94B5926094BDC2
:1002F00095B5916095BD282F30E0F901E155FF4F8C
:10030000E491F0E0EE0FFF1FE957FF4F4591549144
:10031000F901E556FF4FE491E093C502C0E0A0CF9C
:1003200010928000109281009091810098609093CB
:10033000810090918100916090938100282F30E09E
:10034000F901E155FF4FE491F0E0EE0FFF1FE9578F
:10035000FF4F45915491F901E556FF4FE491E09329
:10036000C4027ECF1092B0001092B1009091B00004
:1003700092609093B0009091B10091609093B10021
:10038000282F30E0F901E155FF4FE491F0E0EE0F46
:10039000FF1FE957FF4F459154915093C30240937B
:1003A000C202F901E556FF4FE491E093C10258CF34
:1003B0008091B100887F82608093B100C130E1F00C
:1003C000C23079F1C11143CF68CF980150E040E0CD
:1003D00060E072E18AE790E00E946119BA01A90128
:1003E0004150510961097109C13041F78091810083
:1003F000887F8160809381005093890040938800BA
:100400008FEF9FEFDC018093CA029093CB02A09301
:10041000CC02B093CD0280916F00826080936F0018
:1004200016CF4093B3008FEF9FEFDC018093C6029D
:100430009093C702A093C802B093C9028091700044
:1004400082608093700003CF3FB7F8948091A1023F
:100450009091A202A091A302B091A40226B5A89BFC
:1004600005C02F3F19F00196A11DB11D3FBFBA2F46
:10047000A92F982F8827BC01CD01620F711D811D06
:10048000911D42E0660F771F881F991F4A95D1F78B
:1004900008958F929F92AF92BF92CF92DF92EF9288
:1004A000FF924B015C010E9424026B017C010E94BF
:1004B00024026C197D098E099F09683E73408105ED
:1004C0009105A8F321E0821A9108A108B10888EEED
:1004D000C80E83E0D81EE11CF11C81149104A10414
:1004E000B10429F7FF90EF90DF90CF90BF90AF90CD
:1004F0009F908F9008952FB7F89460919D0270910E
:100500009E0280919F029091A0022FBF089590912A
:10051000110189130BC0E6E8F0E0E4919FEF90939E
:100520001101E13049F028F0E23061F060E00C9414
:10053000BE0010926E00FACF90916F009D7F909355
:100540006F00F4CF909170009D7F9093700091E0C8
:100550009093B0009091B100987F94609093B10017
:100560001092B300E3CFAF92BF92CF92DF92EF929F
:10057000FF920F931F93CF93DF936C017B018B014D
:10058000040F151FEB015E01AE18BF08C017D1079D
:1005900059F06991D601ED91FC910190F081E02D27
:1005A000C6010995892B79F7C501DF91CF911F917C
:1005B0000F91FF90EF90DF90CF90BF90AF90089594
:1005C000FC01538D448D252F30E0842F90E0821B59
:1005D000930B541710F0CF96089501970895FC01DE
:1005E000918D828D981761F0A28DAE0FBF2FB11D36
:1005F0005D968C91928D9F5F9F73928F90E008958E
:100600008FEF9FEF0895FC01918D828D981731F047
:10061000828DE80FF11D858D90E008958FEF9FEF9B
:100620000895FC01918D228D892F90E0805C9F4F71
:10063000821B91098F739927089589ED92E00E949A
:10064000110321E0892B09F420E0822F089580E036
:1006500090E0892B29F00E941D0381110C94000069
:100660000895FC01A48DA80FB92FB11DA35ABF4F47
:100670002C91848D90E001968F739927848FA689A1
:10068000B7892C93A089B1898C91837080648C93F5
:10069000938D848D981306C00288F389E02D8081A4
:1006A0008F7D80830895EF92FF920F931F93CF93D6
:1006B000DF93EC0181E0888F9B8D8C8D98131AC09D
:1006C000E889F989808185FF15C09FB7F894EE8984
:1006D000FF896083E889F9898081837080648083E1
:1006E0009FBF81E090E0DF91CF911F910F91FF902C
:1006F000EF900895F62E0B8D10E00F5F1F4F0F73D4
:100700001127E02E8C8D8E110CC00FB607FCFACF8E
:10071000E889F989808185FFF5CFCE010E943103F8
:10072000F1CFEB8DEC0FFD2FF11DE35AFF4FF0825F
:100730009FB7F8940B8FEA89FB8980818062CFCFC5
:10074000CF93DF93EC01888D8823B9F0AA89BB8908
:10075000E889F9898C9185FD03C0808186FD0DC0F3
:100760000FB607FCF7CF8C9185FFF2CF808185FF14
:10077000EDCFCE010E943103E9CFDF91CF910895F3
:10078000FC0120812EBD9B012150310941F0518196
:100790000DB407FEFDCF4EB55EBD4193F5CF615060
:1007A0007109860F971F0DB407FEFDCF2EB5FC0112
:1007B00020830895E091D302F091D402808190913A
:1007C000D202892B80830895E091D302F091D40264
:1007D00090818091D20280958923808308958EBD77
:1007E00000000DB407FEFDCF8EB50895AF92BF9205
:1007F000CF92DF92EF92FF920F931F93CF93DF93ED
:10080000CDB7DEB728970FB6F894DEBF0FBECDBFC9
:100810008C017B016A018091D6028333E1F4580197
:10082000A40EB51EA016B10609F46FC00E94E40321
:1008300080EF0E94EF03812F0E94EF03802F0E9420
:10084000EF030F5F1F4FF70181917F010E94EF03BC
:100850000E94DA03E7CF5B01A40EB51E8433C1F416
:100860000E94E40319830A838D2D80688B83CC82D8
:1008700064E070E0CE0101960E94C003AE14BF0494
:1008800009F441C0F70181917F010E94EF03F6CF87
:100890000E94E4030F3F110509F028F419820A832E
:1008A00084E08B830CC017FD17C019820A8333E0E4
:1008B000169507953A95E1F7007E0C600B8386E06C
:1008C000C816D104A0F5F701DE011496EA15FB0560
:1008D00099F081918D93FACFC80126E0969587957E
:1008E0002A95E1F7807E19830A830115104C10F4D4
:1008F0008461D7CF8C61D5CFB6016D5F7F4FCE01BC
:1009000001960E94C0030E94DA03C60128960FB622
:10091000F894DEBF0FBECDBFDF91CF911F910F9135
:10092000FF90EF90DF90CF90BF90AF90089563E07D
:1009300070E0CE0101960E94C003F70181917F0112
:100940000E94EF03AE14BF04C1F7DDCFCF93DF9356
:100950001F92CDB7DEB7898341E050E0BE016F5FE3
:100960007F4F90E080E00E94F6030F90DF91CF91DF
:10097000089590E02091D602233339F40C96982FF5
:10098000990F990F990F80E008954896F8CFDA01F2
:10099000E091D702F0E0FE2FEE27E60FF71F90E080
:1009A000982F8827A901BD018E0F9F1F0C94F60375
:1009B000CF93DF9300D0CDB7DEB779836A8322E08F
:1009C00030E0AE014F5F5F4F60E170E00E94C7040E
:1009D0000F900F90DF91CF910895CF93DF9300D0C8
:1009E000CDB7DEB779836A8322E030E0AE014F5F96
:1009F0005F4F64E070E00E94C7040F900F90DF919A
:100A0000CF910895CF93DF931F92CDB7DEB720919A
:100A1000D70230E0322F2227260F371F90E0982F81
:100A20008827498341E050E0BE016F5F7F4F820F0E
:100A3000931F0E94F6030F90DF91CF910895CF93FB
:100A4000DF931F92CDB7DEB76983DC01ED91FC9196
:100A50000280F381E02D41E050E0BE016F5F7F4FE7
:100A600009950F90DF91CF910895FC019485FB01CA
:100A70008485981303C081E0943008F080E00895E5
:100A8000CF93DF931F92CDB7DEB76983DC01ED9181
:100A9000FC910280F381E02D41E050E0BE016F5FE8
:100AA0007F4F09950F90DF91CF9108950895FF92A0
:100AB0000F931F93CF93DF93EB01FC01178A168AE4
:100AC0002A81211109C02B81211106C02C812111FD
:100AD00003C02D81222301F141155105E9F08A015E
:100AE000FC01F08C80E591E00E948D00AE014E5F2C
:100AF0005F4F24E030E06CE070E08F2D0E94C7046F
:100B0000B8018F2D0E94D80481E090E0DF91CF9151
:100B10001F910F91FF90089580E0F7CFFC0184852D
:100B200095850895FC0184899589089527E931E028
:100B3000FC0131832083FB014089518962897389DB
:100B4000FC0142835383648375830895DC01ED9136
:100B5000FC91048CF58DE02D099490E080E00895DF
:100B6000FC01768765870895DC01ED91FC9102A078
:100B7000F3A1E02D099591E089270895862F089526
:100B800081E08627089521E0FC018485843008F007
:100B900020E0822F08950895FB0101900020E9F7DD
:100BA0003197AF01461B570BDC01ED91FC910280A0
:100BB000F381E02D09948F929F92AF92BF92EF92B2
:100BC000FF920F931F93CF93DF93CDB7DEB7A1971B
:100BD0000FB6F894DEBF0FBECDBF7C01FA01CB018A
:100BE00019A2223008F42AE08E010F5D1F4F822ED9
:100BF000912CB12CA12CBF01A50194010E94801958
:100C0000F901CA016A300CF5605DD8016E938D015F
:100C1000232B242B252B79F790E080E0109721F0EF
:100C2000BD01C7010E94CC05A1960FB6F894DEBFA6
:100C30000FBECDBFDF91CF911F910F91FF90EF902D
:100C4000BF90AF909F908F900895695CDECF8F9298
:100C50009F92AF92BF92CF92DF92EF92FF920F934B
:100C60001F93CF93DF937C01EB016C0182E0C80EF0
:100C7000D11C4701E5E08E0E911C10E000E0F6016A
:100C800041916F0150E070E060E02AE0CE010E94E7
:100C9000DB055C01E881F9810190F081E02D6EE2D5
:100CA000CE0109958A0D9B1D080F191FC814D90480
:100CB00031F7F701458150E070E060E02AE0CE01B5
:100CC0000E94DB05800F911FDF91CF911F910F9143
:100CD000FF90EF90DF90CF90BF90AF909F908F905C
:100CE00008954F925F926F927F928F929F92AF92F0
:100CF000BF92CF92DF92EF92FF92CF936B017C0174
:100D0000842EAC019B010E94D91B69E971E081111D
:100D100026C026013701E89477F82FEF3FEF4FE721
:100D20005FE7C301B2010E94D91B81110CC02FEFF4
:100D30003FEF4FE75FE7C301B2010E940F1A6DE971
:100D400071E0181664F02FEF3FEF4FE75FE4C70143
:100D5000B6010E94671B18169CF461EA71E089EDE8
:100D600092E0CF91FF90EF90DF90CF90BF90AF9047
:100D70009F908F907F906F905F904F900C94CC05D8
:100D80002FEF3FEF4FE75FECC701B6010E940F1A4C
:100D900087FDE3CF20E030E0A901C701B6010E9442
:100DA0000F1AB12CA12C87FF0AC06DE289ED92E0E9
:100DB0000E9453035C01F7FAF094F7F8F094C82D01
:100DC00060E070E080E09FE3912C20E030E040E2C2
:100DD00051E40E94141A93949814B8F3A701960151
:100DE0000E94A3192B013C010E94861A6B017C0111
:100DF0000E94B51A9B01AC01C301B2010E94A21965
:100E00002B013C012AE0B701A60189ED92E00E9486
:100E1000DB057C016EE289ED92E00E945303E80E4F
:100E2000F91EEA0CFB1CC15028F120E030E040E242
:100E300051E4C301B2010E946C1B2B013C010E94D2
:100E4000861A4B01B12CA12C2AE0B501A40189ED31
:100E500092E00E94DB05E80EF91EC501B4010E9474
:100E6000B51A9B01AC01C301B2010E94A2192B016A
:100E70003C01D9CFC701CF91FF90EF90DF90CF9089
:100E8000BF90AF909F908F907F906F905F904F90AA
:100E90000895CF92DF92EF92FF92CF93DF936C0190
:100EA000990FEE08FF08F7FE23C06DE289ED92E08E
:100EB0000E945303EC0144275527BA014C195D09E0
:100EC0006E097F092AE089ED92E00E94DB05C80FD8
:100ED000D91F65EA71E089ED92E00E94CC058C0F84
:100EE0009D1FDF91CF91FF90EF90DF90CF900895FD
:100EF0002AE0B701A60189ED92E00E94DB05EC0132
:100F0000E8CF0F931F93CF93DF93EC010E94CC05A2
:100F10008C0165EA71E0CE010E94CC05800F911F23
:100F2000DF91CF911F910F910895AF92BF92CF9211
:100F3000DF92EF92FF920F931F93CF93DF9300D036
:100F400000D0CDB7DEB78C016B017A018091D6025B
:100F50008333E9F45B016801C40ED51EC016D106C7
:100F6000A9F10E94E4038FE00E94EF03812F0E9409
:100F7000EF03802F0E94EF030F5F1F4F80E00E945E
:100F8000EF03F50181935F010E94DA03E7CF843319
:100F900069F50E94E40319830A838F2D8F778B8371
:100FA000EC8264E070E0CE0101960E94C003A701CC
:100FB00070E060E0C6010E94091DE114F10421F017
:100FC000B701C6010E94C0030E94DA03C7010F9057
:100FD0000F900F900F90DF91CF911F910F91FF9085
:100FE000EF90DF90CF90BF90AF9008950E94E40300
:100FF0000F3F110509F030F419820A831B8263E068
:1010000070E0D1CF17FD0BC019820A8333E016952B
:1010100007953A95E1F7007E08600B83F0CFC80191
:1010200026E0969587952A95E1F7807E19830A83B5
:101030000115104C18F480618B83E1CF8861FCCFDF
:10104000CF93DF931F92CDB7DEB72091D70230E068
:10105000322F2227260F371F90E0982F882741E054
:1010600050E0BE016F5F7F4F820F931F0E94950774
:1010700089810F90DF91CF910895CF93C82F462F8C
:1010800061E070E00E94020561E070E08C2F0E9438
:1010900020088111F9CFCF910895CF93C82F80E513
:1010A00091E00E948D0068E070E08C2FCF910C944D
:1010B0003D08CF93C82F80E591E00E948D0060E14C
:1010C00070E08C2FCF910C943D08CF93DF93EC010F
:1010D000888D843020F40E94590884E0888FDF9145
:1010E000CF910895CF93C82F80E591E00E948D00A5
:1010F00063E070E08C2FCF910C942008CF93DF93A6
:10110000EC018C858430D0F40E947208843189F01F
:10111000882379F0883169F021E08C3159F4E88135
:10112000F9810084F185E02DCE01099521E0892B1C
:1011300009F420E0822FDF91CF91089580E0FBCF6A
:10114000CF92DF92EF92FF92CF93DF93EC018C85E9
:10115000843068F40E944D080E947B026B017C0180
:101160008C850E947208811109C084E08C87DF9110
:10117000CF91FF90EF90DF90CF90089561E070E005
:1011800080E090E00E9449020E947B02AB01BC011A
:101190004C195D096E097F098D859E85B0E0A0E040
:1011A000481759076A077B07D8F28C850E945908AF
:1011B000DCCFCF93FC01C08D80E591E00E948D00D3
:1011C00060E270E08C2F0E943D0862E070E08C2F9E
:1011D0000E94200884FD16C062E070E08C2F0E94FF
:1011E000200883FF0AC048E162E070E08C2F0E9473
:1011F000020580E090E0CF91089580E591E00E94A3
:101200008D00E3CF40E162E070E08C2F0E94020588
:1012100081E0F0CFCF93DF931F92CDB7DEB741E0EF
:1012200050E0BE016F5F7F4F90E080E00E94950725
:1012300089810F90DF91CF910895CF93DF93C4E11F
:10124000D0E00E940A09882361F061E070E080E04C
:1012500090E00E9449022197A1F780E0DF91CF91B1
:10126000089581E0FBCFCF92DF92EF92FF921F9320
:10127000CF93DF93CDB7DEB7E2970FB6F894DEBF1A
:101280000FBECDBFFC0182819381A481B5818DA762
:101290009EA7AFA7B8AB51E058ABCDA4DEA4EFA496
:1012A000F8A8CB8EDC8EED8EFE8EFB01C280D38043
:1012B000E480F580C9A2DAA2EBA2FCA28FA398A7D2
:1012C000A9A7BAA727E931E03C8B2B8B4FEF4D8BB9
:1012D0004E8B4F8B188E3E872D875E8F4B8D5C8D8E
:1012E0006D8D7E8D4F87588B698B7A8BC986DA8698
:1012F000EB86FC863A8329838B839C83AD83BE83F4
:101300008091D8028111AFC060E372E080E090E08C
:101310000E9449021FB7F8948091D502811127C01D
:10132000E9EBF0E08491E5EAF0E09491E82FF0E059
:10133000EE0FFF1FEF56FF4FA591B491EC91E923FB
:1013400021F461E08AE00E94BE0061E08AE00E9430
:10135000EC008CB580618CBD8CB580648CBD61E087
:101360008DE00E94EC0061E08BE00E94EC00809137
:10137000D5028F5F8093D5021FBF80911201282F65
:1013800030E0F901E155FF4FE491F0E0EE0FFF1F6F
:10139000E957FF4F459154915093D4024093D302A3
:1013A000F901E556FF4FE491E093D20261E00E941B
:1013B000EC000E94DA0380E591E00E948D0084E356
:1013C0008093D60280E80E94A6040E941D0988230B
:1013D00009F47DC088E00E94A6040E940A098830B2
:1013E00009F075C080E10E94A6040E940A098031BC
:1013F00009F06DC080E00E94A6040E940A09182F1F
:10140000811165C041E050E0BE016F5C7F4F8FE10C
:1014100090E00E94950789A9833009F058C080E4C4
:101420008093D70242E06EE170E0812F0E940205B6
:1014300042E06FE170E0812F0E9402051F5F1430CF
:1014400089F740E06EE170E0812F0E94020540E0E4
:101450006FE170E0812F0E9402051F5F183089F74D
:1014600081E08093D80280E591E00E948D0046E003
:1014700050E063E171E089E090E00E94F60344E00F
:1014800050E0BE016D5F7F4F8FE090E00E94F60359
:1014900044E050E0BE01615F7F4F81E090E00E9438
:1014A000F60344E050E0BE016B5E7F4F85E090E0C4
:1014B0000E94F60389859A85AB85BC858093960347
:1014C00090939703A0939803B093990369C087E31F
:1014D0008093D60280E80E94A6040E941D098823FA
:1014E00029F188E00E94A6040E940A098830F1F4DC
:1014F00080E10E94A6040E940A09182F8031B1F4ED
:1015000080E00E94A6040E940A0981110FC041E0F8
:1015100050E0BE016F5C7F4F89E390E00E94950729
:1015200089A9843019F41093D7029ACF83E380936A
:10153000D60280E80E94A6040E941D09882371F14A
:1015400080E10E94A6040E940A09803139F582E1F7
:101550000E94A6040E940A09823101F580E00E94DF
:10156000A6040E940A09811119C084E08093D70261
:1015700015E51AAB41E050E0BE016E5C7F4F8BE198
:1015800090E00E94F60319AB41E050E0BE016F5CB1
:101590007F4F8AE190E00E94F60362CF1092D6025C
:1015A000E2960FB6F894DEBF0FBECDBFDF91CF91AC
:1015B0001F91FF90EF90DF90CF9008951F93CF93EE
:1015C000DF931F92CDB7DEB7182F80E591E00E9420
:1015D0008D00812F0E94B90427E0129FF001112491
:1015E000EB55FD4F22813381377041E050E0BE0161
:1015F0006F5F7F4F820F931F0E94950789810F9025
:10160000DF91CF911F910895FC01808D843040F4CB
:10161000218D328D232B21F00E94DE0A90E0089567
:101620008FEF9FEF0895CF93DF93FC012485243043
:1016300028F08FEF9FEFDF91CF910895EC0101909B
:10164000F081E02D0084F185E02D0995892B89F347
:101650008C850E94DE0A90E0EECFDA01E091D7029D
:10166000F0E0FE2FEE27E60FF71F90E0982F882777
:10167000A901BD018E0F9F1F0C9495078F929F9219
:10168000AF92BF92CF92DF92EF92FF921F93CF93D0
:10169000DF93CDB7DEB72C970FB6F894DEBF0FBE41
:1016A000CDBF2091D60214E0222339F16B017C01D9
:1016B00080E591E00E948D005E0127E0A20EB11C42
:1016C000450110E063E070E0812F0E942008F401E2
:1016D00081934F01882349F11F5F143099F710E07F
:1016E000F50181915F018D31D9F08831C9F08A51BE
:1016F0008230B0F01F5F143099F7812F2C960FB60F
:10170000F894DEBF0FBECDBFDF91CF911F91FF9048
:10171000EF90DF90CF90BF90AF909F908F90089503
:1017200060E170E0812F0E943D08A12EB12C83EE74
:1017300093E00197F1F742E870E060E0812F0E94AA
:1017400002054FEF62E070E0812F0E940205B601B2
:10175000C114D10491F480910F0190911001019670
:101760008115F0EC9F0708F45CC090931001809302
:101770000F0160910F0170911001812F0E94ED0403
:1017800086E0EFE1F1E0DE01119601900D928A957D
:10179000E1F7F70183818F778C8384818D83858145
:1017A0008E83A7014E5F5F4F24E030E06CE070E075
:1017B000812F0E94C704B601812F0E94D80426E021
:1017C00030E0AE014F5F5F4F66E070E0812F0E9416
:1017D000C70461E070E0812F0E943D0827E02A9D48
:1017E000C0012B9D900D11249C012B553D4F79017B
:1017F000F9011182108222E030E0AE01455F5F4FB7
:1018000068E270E0812F0E942D0B8B859C859827C4
:1018100089279827F7019383828316821582148281
:101820006CCF80E090ECA1CFCF92DF92EF92FF924D
:101830000F931F93CF93DF9300D000D000D0CDB78C
:10184000DEB78C016B017A01FC01808D843010F4CD
:101850000E94590887E991E09A838983F601828181
:101860009381A481B5818B839C83AD83BE83B701B3
:10187000CE0101960E943E0BF801808F8430A0F4C7
:10188000F586E486128E118E81E026960FB6F894C6
:10189000DEBF0FBECDBFDF91CF911F910F91FF90A3
:1018A000EF90DF90CF90089580E0EFCFAF92BF929E
:1018B000CF92DF92EF92FF920F931F93CF93DF931C
:1018C00000D000D000D0CDB7DEB7082F6B0180E587
:1018D00091E00E948D009E012F5F3F4F79015901D9
:1018E00010E063E070E0812F0E942008F5018193F1
:1018F0005F01882341F11F5F143099F710E0F70171
:1019000081917F018D31D1F08831C1F08A518230CF
:10191000A8F01F5F143099F7812F26960FB6F89420
:10192000DEBF0FBECDBFDF91CF911F910F91FF9012
:10193000EF90DF90CF90BF90AF90089560E170E09E
:10194000812F0E943D08E12EF12C83EE93E0019758
:10195000F1F7402F70E060E0812F0E9402054FEF09
:1019600062E070E0812F0E940205B601CD2889F463
:1019700080910F019091100101968115F0EC9F0765
:1019800098F19093100180930F0160910F01709175
:101990001001812F0E94ED0461E070E0812F0E9410
:1019A0003D0827E02E9DC0012F9D900D11249C0124
:1019B0002B553D4F7901F9011182108222E030E070
:1019C000AE014B5F5F4F68E270E0812F0E942D0BEC
:1019D0008D819E81982789279827F7019383828399
:1019E00016821582148298CF80E090ECCACFCF92F5
:1019F000DF92EF92FF921F93CF93DF93EC017B0175
:101A00006A018C85843048F40E947208882319F09A
:101A10008C850E944D0884E08C87F7018281938138
:101A2000A481B5810097A105B10551F490E080E053
:101A3000DF91CF911F91FF90EF90DF90CF900895AD
:101A40008F3F9F4FAF4FBF4F89F38091D6028111D7
:101A500003C084E08C87EACF70E060E081E20E94FE
:101A6000560C182F8C87843008F780E591E00E948F
:101A70008D00A7014E5F5F4F24E030E06CE070E026
:101A8000812F0E94C704B601812F0E94D80464E010
:101A900070E0812F0E943D080E947B026B017C0157
:101AA0008C850E947208873109F18C31F9F0882306
:101AB00009F4BCCF0E947B02AB01BC014C195D094B
:101AC0006E097F098D859E85B0E0A0E0841795079B
:101AD000A607B70738F061E070E080E090E00E9470
:101AE0004902DECF8C850E945908B3CF81E090E097
:101AF0009FCF0F931F93CF93DF93EC018B01888DC2
:101B0000843010F40E9459088091D602811107C0D8
:101B100094E0988FDF91CF911F910F910895B801B4
:101B200082E00E94560C888F843030F41D870C8729
:101B30001A8E198E81E0EECF80E0ECCF7F928F92EB
:101B40009F92AF92BF92CF92DF92EF92FF920F934C
:101B50001F93CF93DF9300D0CDB7DEB7782E8B01E4
:101B60004A01590122E030E0AE014F5F5F4F64E26D
:101B700070E00E942D0BE980FA80FE24EF24FE2401
:101B8000E00EF11E970137704091D602072D10E04C
:101B9000433309F042C0085F1F4F102F0027110F79
:101BA000110F110FC901800F911F4733C9F1A9010E
:101BB0004A0D5B1D4130584098F160E078E06B01C0
:101BC000C21AD30AA601B4010E94F603A5014C195A
:101BD0005D09B4016C0D7D1DC8010E94F603EA0C7D
:101BE000FB1CF982EA8222E030E0AE014F5F5F4FDA
:101BF00064E270E0872D0E94C7040F900F90DF9180
:101C0000CF911F910F91FF90EF90DF90CF90BF90F9
:101C1000AF909F908F907F900895005F1F4FBDCF32
:101C2000A501B401DACFEF92FF921F93CF93DF9318
:101C300000D0CDB7DEB7182F22E030E0AE014F5F05
:101C40005F4F60E270E00E942D0BE980FA80FE2475
:101C5000EF24FE2422E030E0AE014F5F5F4F60E2F0
:101C600070E0812F0E942D0B89819A819827892706
:101C70009827E816F90689F487E0189FF0011124E7
:101C8000EB55FD4FF582E482C7010F900F90DF9175
:101C9000CF911F91FF90EF9008957C01DBCF1F93B0
:101CA000CF93DF93182F80E591E00E948D00812F64
:101CB0000E94130EEC0163E070E0812F0E94200867
:101CC000873121F08C3111F0D0E0C0E0CE01DF91FE
:101CD000CF911F910895CF93DF93EC018C858430D1
:101CE00060F40E947208873111F08C3131F48C85D8
:101CF0000E944F0E8115984088F3DF91CF9108958F
:101D0000FC018485843010F40C944F0E90E080E048
:101D100008959F92AF92BF92CF92DF92EF92FF927F
:101D20000F931F93CF93DF938C015B01942EE52ECD
:101D3000FC01C688D788F08C80E591E00E948D0078
:101D40008F2D0E94130EC92DDE2D8C179D0708F4D0
:101D5000EC019E01A501B6018F2D0E949E0DF80198
:101D6000868997898C0F9D1F978B868BCE01DF917B
:101D7000CF911F910F91FF90EF90DF90CF90BF9088
:101D8000AF909F9008958F929F92AF92BF92CF9203
:101D9000DF92EF92FF920F931F93CF936C015B0141
:101DA0008A01FC01C485C430F0F57A014130584005
:101DB00018F0E12C88E0F82E80E591E00E948D007B
:101DC0008C2F0E94130E4C0163E070E08C2F0E9458
:101DD0002008873111F08C3149F58E149F0460F38F
:101DE00080E591E00E948D009701A50170E060E020
:101DF0008C2F0E949E0D60E270E08C2F0E943D08A7
:101E000062E070E08C2F0E94200884FD17C063E020
:101E100070E08C2F0E94200881110BC081E090E0BF
:101E2000F6019383828310E000E010C0F12CE12CD6
:101E3000D7CF80E591E00E948D00E2CF40E162E0E3
:101E400070E08C2F0E940205EF2841F3C801CF916A
:101E50001F910F91FF90EF90DF90CF90BF90AF90C8
:101E60009F908F900895FF920F931F93CF93DF93CE
:101E700000D0CDB7DEB7F82E22E030E0AE014F5FE4
:101E80005F4F66E270E00E942D0B09811A811027D6
:101E90000127102722E030E0AE014F5F5F4F66E27E
:101EA00070E08F2D0E942D0B89819A8198278927B8
:101EB00098270817190749F4C8010F900F90DF9170
:101EC000CF911F910F91FF9008958C01E3CF1F9345
:101ED000CF93DF93182F87E0189FE0011124CB5593
:101EE000DD4F88819981009761F480E591E00E943F
:101EF0008D00812F0E94330F2E81821B91099983BF
:101F00008883DF91CF911F910895FC0184858430EF
:101F100010F40C94670F90E080E008954F925F9268
:101F20007F928F929F92AF92BF92CF92DF92EF9269
:101F3000FF920F931F93CF93DF9300D0CDB7DEB7FF
:101F4000782E6B014A01A82EB12C27E0829FC00198
:101F50001124FC01EB55FD4F7F010081118180E5CB
:101F600091E00E948D000815190554F4872D0E94F8
:101F7000330FF70126818C01021B110911830083A5
:101F80000115110529F563E070E0872D0E942008F6
:101F9000843159F0882349F001E010E08C3111F4CC
:101FA00010E000E0119501951109C8010F900F9004
:101FB000DF91CF911F910F91FF90EF90DF90CF9025
:101FC000BF90AF909F908F907F905F904F900895BB
:101FD000801691060CF4840187E08A9DF0018B9DA8
:101FE000F00D1124EB55FD4FE280F380C114D104B4
:101FF00051F12701F7E05F22872D0E94B904840D7B
:10200000951D2091D602273309F453C09801240D61
:10201000351D2130384008F44CC020E038E049013B
:1020200084189508A401B6010E9495072601480C62
:10203000591C6801C818D908872D0E94B904A60147
:10204000B2010E949507E00EF11E87E08A9DF00123
:102050008B9DF00D1124EB55FD4FF382E282208120
:102060003181201B310B318320838681800F912F9A
:10207000911D8A3F910510F4232BF1F487E08A9D8E
:10208000F0018B9DF00D1124EB55FD4F1682F98266
:10209000EA8222E030E0AE014F5F5F4F68E270E01D
:1020A000872D0E94C70460E470E0872D0E943D08E0
:1020B0007CCFA801B601C5CF868377CFCF93DF93BE
:1020C000FC01218D328D2115310529F48FEF9FEF11
:1020D000DF91CF910895EC01808D4217530708F0EE
:1020E000A9010E948E0F1816190684F7298D3A8DC2
:1020F000281B390B3A8F298FEBCF0F931F93CF9368
:10210000DF931F92CDB7DEB7FC01218D328D232BDB
:1021100041F48FEF9FEF0F90DF91CF911F910F91BF
:1021200008958C0141E050E0BE016F5F7F4FFC01DC
:10213000808D0E948E0F181619065CF7F801818DAC
:10214000928D0197928F818F898190E0E4CFCF9318
:10215000DF931F92CDB7DEB741E050E0BE016F5F65
:102160007F4FFC0184850E948E0F1816190634F4E7
:10217000898190E00F90DF91CF9108958FEF9FEFCD
:10218000F9CFFC018485843010F40C948E0F90E01C
:1021900080E008950F931F93CF93DF9300D0CDB7C6
:1021A000DEB7FC0124852430E0F48C0180E591E069
:1021B0000E948D0022E030E0AE014F5F5F4F60E192
:1021C00070E0F80184850E942D0B89819A819827FF
:1021D000892798270F900F90DF91CF911F910F9132
:1021E000089590E080E0F6CF0F931F93CF93DF9395
:1021F00000D0CDB7DEB7FC0124852430E0F48C019B
:1022000080E591E00E948D0022E030E0AE014F5F5A
:102210005F4F64E070E0F80184850E942D0B898196
:102220009A819827892798270F900F90DF91CF9157
:102230001F910F91089590E080E0F6CF0F931F93C8
:10224000CF93DF93CDB7DEB728970FB6F894DEBFF4
:102250000FBECDBF8C01D80159964D915C915A9714
:102260004115510551F0ED91FC91048CF58DE02D57
:1022700070E060E0C8010995EECFF801808D0E9402
:10228000670F892BB1F148E050E0BE016F5F7F4FCF
:10229000D80158968C910E948E0F18161906F4F4E6
:1022A000D801509684E0FE01319601900D928A95F6
:1022B000E1F78D8190E0982F88272E81820F911D64
:1022C000F801958B848B8F81282F30E0322F2227C5
:1022D0008885820F932F911D928F818F28960FB63C
:1022E000F894DEBF0FBECDBFDF91CF911F910F914C
:1022F000089590E080E0F2CF4F925F926F927F92CC
:102300008F929F92AF92BF92CF92DF92EF92FF9205
:102310000F931F93CF93DF93CDB7DEB763970FB6BD
:10232000F894DEBF0FBECDBF7C016B013A01FB010B
:1023300020E090E080E06AE03191332309F461C04D
:1023400040ED430F4A3008F04DC0689FA001699FDF
:10235000500D1124CA01C097830F911D37FD9A9526
:102360008F3F910549F340F3F70142815381648126
:1023700075818091A2039091A303A091A403B091D1
:10238000A503481759076A077B0709F40DC287019F
:10239000085F1F4F0E947B026F7077277C5FC80128
:1023A0000E94790D813009F004C287E991E09A8397
:1023B0008983F70182819381A481B5818B839C837A
:1023C000AD83BE8345E350E0BE016F5F7F4FC80120
:1023D0000E945705892BA9F5D12CC12CC8010E9458
:1023E000650817C03E3209F0BFCF233009F4BCCFD7
:1023F000D301A20FB11D12968C932F5F90E080E065
:102400009BCF233009F0B0CFF3018583CC24C39454
:10241000D12CC60163960FB6F894DEBF0FBECDBFB8
:10242000DF91CF911F910F91FF90EF90DF90CF90B0
:10243000BF90AF909F908F907F906F905F904F90E4
:1024400008950E947B02F7017783668342E050E0A3
:10245000B7016A5F7F4FC8010E94890E81E090E05A
:102460009A83898342E050E0BE016F5F7F4FC801CD
:102470000E94890E80E091E09A83898342E050E0D7
:10248000BE016F5F7F4FC8010E94890E1A821982B8
:1024900042E050E0BE016F5F7F4FC8010E94890E8D
:1024A00042E050E0BE016F5F7F4FC8010E94890E7D
:1024B00042E050E0BE016F5F7F4FC8010E94890E6D
:1024C0005601F6018081882301F16501F6018191B1
:1024D0002F01882311F08E32B1F446018A189B082F
:1024E0001814190474F48D8641E050E0BE01635F56
:1024F0007F4FC8010E94890EA401B501C8010E9446
:10250000890E5201DECF6201E1CF1D8641E050E02D
:10251000BE01635F7F4FC8010E94890EC12CDD247C
:10252000D394DA82C98242E050E0BE016F5F7F4FF0
:10253000C8010E94890EDA82C98242E050E0BE01E1
:102540006F5F7F4FC8010E94890EC8010E94D908A1
:10255000892B09F441CFF3E0AF2EB12C230122E007
:10256000420E511CD4C0F7014281538164817581B0
:10257000808D918DA28DB38D481759076A077B070F
:1025800009F008C1848D958DC59709F003C181A11B
:1025900092A15DEFC52EDD24DA940C970CF4ADC04A
:1025A0004CE050E0BE016F5F7F4FC8010E945E109B
:1025B0008B819C819827892798279A8B898BF70193
:1025C0004681578129813A814217530709F0E7C0B4
:1025D00097FFE5C08F7092703BEFC32EDD24DA9435
:1025E000892B09F08AC06F8078847624672476244A
:1025F0002AEFC22EDD24DA946114710409F47DC03F
:10260000D12CC12C8D819E81982789279827C816A7
:10261000D906F8F441E050E0BE01635F7F4FC80186
:102620000E945E104D85442331F050E070E060E080
:10263000C8010E945E108D858111ECCF44E050E00E
:1026400070E060E0C8010E945E10FFEFCF1ADF0A61
:10265000D9CF912C812C41E050E0BE016D5E7F4FBF
:10266000C8010E945E104B89842F807C09F06CC0E9
:10267000442331F050E070E060E0C8010E945E1039
:102680008B898111E8CF42E050E0BE01615F7F4F4E
:10269000C8010E945E1042E050E0BE01635F7F4FC0
:1026A000C8010E945E1044E050E070E060E0C801A4
:1026B0000E945E1042E050E0BE016F5E7F4FC80195
:1026C0000E945E108F85988949895A8981159140A9
:1026D00009F043C0CD84DE84DC24CD24DC2481E0F9
:1026E000C816D104D1F54115544009F04AC044E060
:1026F00050E0B201C8010E945E1021E0A21AB108A8
:1027000009F46CCEFFEFCF16DF0609F067CE0E940A
:102710007B023B014C01C8010E941E1118161906CC
:102720000CF421CF0E947B02661977098809990968
:10273000693873418105910548F562E370E080E0F6
:1027400090E00E944902E7CF41E050E070E060E095
:10275000C8010E945E101B8A93CF54274527542737
:1027600070E060E0C8010E945E10FFEF8F1A9F0AC0
:102770006814790409F06FCF96EFC92EDD24DA943E
:10278000BCCFE7EFCE2EDD24DA94B7CFCC24CA94A9
:10279000DC2CB3CF6EEFC62EDD24DA94AECF4CEF37
:1027A000C42EDD24DA94A9CF8EEFC82EDD24DA946E
:1027B00030CED12CC12C2DCECF92DF92EF92FF9252
:1027C0000F931F93CF93DF93CDB7DEB7AF970FB6BD
:1027D000F894DEBF0FBECDBF7C016A0107E911E0AE
:1027E0001A8309831C861B8688EE93E0A0E0B0E084
:1027F0008D879E87AF87B88B89E291E09A8789871A
:10280000188F0F8B198E1A8E1B8E1C8E84E089A355
:102810001BA70AA71CA61DA61EA61FA6809196038D
:1028200090919703A0919803B09199038EA39FA3D1
:10283000A8A7B9A78B839C83AD83BE8318861F820C
:10284000AE01465D5F4FCE0101960E947C11813042
:102850009105B1F4D701ED91FC910488F589E02D43
:102860001DA30CA38CA59DA5AEA5BFA58EA39FA35C
:10287000A8A7B9A7A601BE016C5D7F4FC701099546
:10288000AF960FB6F894DEBF0FBECDBFDF91CF91EC
:102890001F910F91FF90EF90DF90CF900895CF920E
:1028A000DF92EF92FF920F931F93CF93DF93CDB7F9
:1028B000DEB7AF970FB6F894DEBF0FBECDBF8C0169
:1028C0006B017A0187E991E09A8389831B821C82DC
:1028D0001D821E821C861B8648EE53E060E070E07D
:1028E0004D875E876F87788B29E231E03A872987A9
:1028F000988F8F8B198E1A8E1B8E1C8E24E029A325
:102900009BA78AA71CA61DA61EA61FA6D8011C96BB
:102910008C91843060F40E947208882321F0F801C1
:1029200084850E944D0884E0D8011C968C93809188
:10293000960390919703A0919803B09199038EA369
:102940009FA3A8A7B9A78B839C83AD83BE8318865A
:102950001F82AE01465D5F4FB601CE0101960E9417
:102960007C110097C1F0D801ED91FC910684F785A8
:10297000E02D87E991E09DA38CA38CA59DA5AEA534
:10298000BFA58EA39FA3A8A7B9A7A701BE016C5D91
:102990007F4FC8010995AF960FB6F894DEBF0FBE02
:1029A000CDBFDF91CF911F910F91FF90EF90DF90FE
:1029B000CF900895EF92FF920F931F93CF93DF93E1
:1029C00000D000D0CDB7DEB78C017B01FB01848540
:1029D0008430A8F087E991E0F80191838083128226
:1029E000138214821582C8010F900F900F900F90E0
:1029F000DF91CF911F910F91FF90EF90089580E5A7
:102A000091E00E948D0024E030E0AE014F5F5F4F07
:102A10006CE070E0F70184850E942D0B87E991E05E
:102A2000F8019183808389819A81AB81BC81828303
:102A30009383A483B583D7CF0C94801C1F920F92ED
:102A40000FB60F9211242F933F938F939F93AF93C1
:102A5000BF9380919D0290919E02A0919F02B091A0
:102A6000A00230919C0223E0230F2D3758F50196E8
:102A7000A11DB11D20939C0280939D0290939E0204
:102A8000A0939F02B093A0028091A1029091A20214
:102A9000A091A302B091A4020196A11DB11D809343
:102AA000A1029093A202A093A302B093A402BF91AB
:102AB000AF919F918F913F912F910F900FBE0F90EB
:102AC0001F90189526E8230F0296A11DB11DD2CFA5
:102AD0001F920F920FB60F9211242F933F934F9393
:102AE0005F936F937F938F939F93AF93BF93EF9376
:102AF000FF938091C6029091C702A091C802B09145
:102B0000C902892B8A2B8B2BD1F19091C102E091C4
:102B1000C202F091C3028081892780838091C6021E
:102B20009091C702A091C802B091C9021816190667
:102B30001A061B069CF48091C6029091C702A091D0
:102B4000C802B091C9020197A109B1098093C602D8
:102B50009093C702A093C802B093C902FF91EF916E
:102B6000BF91AF919F918F917F916F915F914F91A5
:102B70003F912F910F900FBE0F901F90189580914D
:102B800011010E948702EACF1F920F920FB60F9297
:102B900011242F933F934F935F936F937F938F9362
:102BA0009F93AF93BF93EF93FF9389ED92E00E94C1
:102BB0003103FF91EF91BF91AF919F918F917F91E1
:102BC0006F915F914F913F912F910F900FBE0F909A
:102BD0001F9018951F920F920FB60F9211242F93EA
:102BE0008F939F93EF93FF93E091E902F091EA02B4
:102BF0008081E091EF02F091F00282FD1BC0908194
:102C00008091F2028F5F8F732091F302821741F05F
:102C1000E091F202F0E0E752FD4F958F8093F202CF
:102C2000FF91EF919F918F912F910F900FBE0F9079
:102C30001F9018958081F4CFE9EDF2E013821282A3
:102C400048EE53E060E070E0448355836683778309
:102C500083E591E09183808385EC90E0958784877C
:102C600084EC90E09787868780EC90E0918B808B56
:102C700081EC90E0938B828B82EC90E0958B848B3F
:102C800086EC90E0978B868B118E128E138E148EAD
:102C9000E6E7F3E087E991E0918380831282138273
:102CA00014821582ECE7F3E0918380831282138211
:102CB00014821582E2E8F3E091838083128213820A
:102CC00014821582E8E8F3E09183808312821382F4
:102CD00014821582EEE8F3E09183808312821382DE
:102CE00014821582EAE9F3E09183808312821382D1
:102CF00014821582E4E9F3E09183808312821382C7
:102D000014821582E0EAF3E09183808312821382B9
:102D100014821582E6EAF3E09183808312821382A3
:102D200014821582E7ECF3E0918380831282138290
:102D300014821582E1ECF3E09183808320EC2283FE
:102D400028EA238321E0248327E02583EBEBF3E0CB
:102D50009183808388E08283838384838583ECEA04
:102D6000F3E013821282448355836683778385E67A
:102D700091E09183808384E0848788EE93E0968756
:102D800085870895CF93DF93CDB7DEB7C655D109B8
:102D90000FB6F894DEBF0FBECDBF789484B58260C5
:102DA00084BD84B5816084BD85B5826085BD85B5EF
:102DB000816085BD80916E00816080936E0010926D
:102DC00081008091810082608093810080918100E8
:102DD0008160809381008091800081608093800079
:102DE0008091B10084608093B1008091B0008160D7
:102DF0008093B00080917A00846080937A00809103
:102E00007A00826080937A0080917A00816080935A
:102E10007A0080917A00806880937A001092C100D5
:102E20008AE080931201E091E902F091EA0282E0E7
:102E30008083E091E502F091E6021082E091E702E2
:102E4000F091E8028FEC80831092F102E091ED02A4
:102E5000F091EE0286E08083E091EB02F091EC02CB
:102E6000808180618083E091EB02F091EC028081AF
:102E700088608083E091EB02F091EC0280818068B1
:102E80008083E091EB02F091EC0280818F7D808362
:102E900068EA71E089ED92E00E94810740E550E028
:102EA00060E071E08CEA93E00E944F14892B09F4F2
:102EB000B3C166EB71E089ED92E00E9481076CEA94
:102EC00073E0CE0101960E94DA1469ED72E0CE0142
:102ED00001960E94270665EA71E089ED92E00E9462
:102EE000CC0563EC71E08CEA93E00E94810762EE0E
:102EF00071E08CEA93E00E94810767EF71E08CEA51
:102F000093E00E94810767EA71E08CEA93E00E94F7
:102F100081070E9424026093900270939102809333
:102F200092029093930261E083E00E94EC0061E0E2
:102F300084E00E94EC0061E088E00E94EC0061E027
:102F400085E00E94EC0061E086E00E94EC0060E019
:102F50008EE00E94EC0060E082E00E94EC0087E9D5
:102F600091E09A8389834091BD035091BE036091A3
:102F7000BF037091C0034B835C836D837E83639634
:102F80009FAF8EAF63978091C3039091C403A091CC
:102F9000C503B091C60367968CAF9DAFAEAFBFAF10
:102FA0006797BE016F5F7F4FCE018F5A9F4F0E9480
:102FB000330968EE73E080E090E00E9449026BE123
:102FC00072E089ED92E00E94CC0569E272E089ED41
:102FD00092E00E94CC0560E372E089ED92E00E94ED
:102FE000810790E4392E24E7422E20E0522E3DE95D
:102FF000632E30E0732E41EBA42E40E0B42E50E05F
:10300000852E50E0952E30927C0080917A0080646D
:1030100080937A0080917A0086FDFCCFC090780082
:10302000D0907900F2018491F3011491F50104919B
:10303000F12CE12C002399F081110E949500E02FE2
:10304000F0E0EE0FFF1FE859FF4FA591B4918C916E
:10305000182391E080E009F490E0E92EF82E8CEA44
:1030600093E00E94850F8C0164E372E089ED92E0A9
:103070000E94CC05C6010E94490763E472E089ED15
:1030800092E00E94CC05C7010E94490768EE73E0F8
:1030900080E090E00E944902101611066CF501359F
:1030A000110514F000E510E0A801BE016F5F7F4F2D
:1030B0008CEA93E00E94C110A801BE016F5F7F4FB0
:1030C00089ED92E00E94B302C801110FAA0BBB0B5D
:1030D000009198021091990220919A0230919B02DE
:1030E000800F911FA21FB31F8093980290939902A3
:1030F000A0939A02B0939B028CEA93E00E947E0810
:1031000081118FC00E9424026093940270939502F3
:10311000809396029093970265EA71E089ED92E0C0
:103120000E94CC0564E572E089ED92E00E9481077F
:103130008CEA93E00E94A00863E672E089ED92E0D9
:103140000E94CC05409198025091990260919A0298
:1031500070919B022AE089ED92E00E94DB056CE60B
:1031600072E089ED92E00E94CC056091940270912A
:103170009502809196029091970200919002109191
:1031800091022091920230919302601B710B820B8D
:10319000930B0E94B51A20E034E244E759E40E9400
:1031A000141A6B017C0144E050E00E9471066091AA
:1031B00098027091990280919A0290919B020E94CC
:1031C000B51AA70196010E94141A20E030E04AE7E0
:1031D00054E40E94141A6B017C0167E772E089EDE8
:1031E00092E00E94CC0542E050E0C701B6010E9487
:1031F000710661E872E089ED92E00E94CC0565EA13
:1032000071E089ED92E00E94CC0561E070E080E021
:1032100090E00E944902F9CF69E072E089ED92E006
:1032200076CEF1E9CF16F1E0DF069CF161E083E0B4
:10323000EF2889F40E94BE0068E873E185E00E94EF
:103240001D0161E084E00E94BE0068E873E186E051
:103250000E941D010EC00E94BE0060EA7FE085E072
:103260000E941D0160E084E00E94BE0086E00E9492
:10327000870260E088E00E94BE008114910409F496
:10328000C2CE0E941D03882309F4BDCE0E94000017
:10329000BACE60E083E0EF2831F40E94BE0085E002
:1032A0000E948702CECF0E94BE0060E084E00E94B0
:1032B000BE0085E00E94870286E00E94870261E0EE
:1032C000D9CF052E97FB1EF400940E94781957FD64
:1032D00007D00E94801907FC03D04EF40C94781993
:1032E00050954095309521953F4F4F4F5F4F089532
:1032F00090958095709561957F4F8F4F9F4F089562
:10330000A1E21A2EAA1BBB1BFD010DC0AA1FBB1FE9
:10331000EE1FFF1FA217B307E407F50720F0A21B5B
:10332000B30BE40BF50B661F771F881F991F1A94C8
:1033300069F760957095809590959B01AC01BD01F2
:10334000CF0108955058BB27AA270E94BA190C94A0
:103350002D1B0E941F1B38F00E94261B20F039F401
:103360009F3F19F426F40C941C1B0EF4E095E7FB28
:103370000C94161BE92F0E943E1B58F3BA176207E4
:1033800073078407950720F079F4A6F50C94601B69
:103390000EF4E0950B2EBA2FA02D0B01B901900170
:1033A0000C01CA01A0011124FF27591B99F0593FB4
:1033B00050F4503E68F11A16F040A22F232F342FFC
:1033C0004427585FF3CF469537952795A795F0404A
:1033D0005395C9F77EF41F16BA0B620B730B840B5F
:1033E000BAF09150A1F0FF0FBB1F661F771F881F17
:1033F000C2F70EC0BA0F621F731F841F48F487956F
:1034000077956795B795F7959E3F08F0B0CF939560
:10341000880F08F09927EE0F9795879508950E94D9
:10342000F21A08F481E008950E94281A0C942D1BCA
:103430000E94261B58F00E941F1B40F029F45F3F9A
:1034400029F00C94161B51110C94611B0C941C1B3D
:103450000E943E1B68F39923B1F3552391F3951B0A
:10346000550BBB27AA2762177307840738F09F5FA5
:103470005F4F220F331F441FAA1FA9F335D00E2E12
:103480003AF0E0E832D091505040E695001CCAF77F
:103490002BD0FE2F29D0660F771F881FBB1F261742
:1034A00037074807AB07B0E809F0BB0B802DBF0119
:1034B000FF2793585F4F3AF09E3F510578F00C94E8
:1034C000161B0C94611B5F3FE4F3983ED4F3869582
:1034D00077956795B795F7959F5FC9F7880F911D09
:1034E0009695879597F90895E1E0660F771F881FF5
:1034F000BB1F621773078407BA0720F0621B730BA8
:10350000840BBA0BEE1F88F7E09508950E94461BC6
:1035100088F09F5798F0B92F9927B751B0F0E1F094
:10352000660F771F881F991F1AF0BA95C9F714C044
:10353000B13091F00E94601BB1E008950C94601BC3
:10354000672F782F8827B85F39F0B93FCCF386957D
:1035500077956795B395D9F73EF4909580957095DA
:1035600061957F4F8F4F9F4F0895E89409C097FB57
:103570003EF490958095709561957F4F8F4F9F4F4A
:103580009923A9F0F92F96E9BB279395F69587958E
:1035900077956795B795F111F8CFFAF4BB0F11F451
:1035A00060FF1BC06F5F7F4F8F4F9F4F16C08823F8
:1035B00011F096E911C0772321F09EE8872F762F2E
:1035C00005C0662371F096E8862F70E060E02AF06F
:1035D0009A95660F771F881FDAF7880F969587955B
:1035E00097F90895990F0008550FAA0BE0E8FEEF30
:1035F00016161706E807F907C0F012161306E407B7
:10360000F50798F0621B730B840B950B39F40A26AF
:1036100061F0232B242B252B21F408950A2609F48D
:10362000A140A6958FEF811D811D089597F99F6791
:1036300080E870E060E008959FEF80EC089500243A
:103640000A941616170618060906089500240A9407
:1036500012161306140605060895092E0394000C8D
:1036600011F4882352F0BB0F40F4BF2B11F460FF1C
:1036700004C06F5F7F4F8F4F9F4F089557FD905845
:10368000440F551F59F05F3F71F04795880F97FB26
:10369000991F61F09F3F79F08795089512161306E0
:1036A0001406551FF2CF4695F1DF08C0161617060F
:1036B0001806991FF1CF8695710561050894089544
:1036C000E894BB2766277727CB0197F908950E94D6
:1036D000F21A08F48FEF08950E947F1B0C942D1BA3
:1036E0000E941F1B38F00E94261B20F0952311F02A
:1036F0000C94161B0C941C1B11240C94611B0E942F
:103700003E1B70F3959FC1F3950F50E0551F629FCC
:10371000F001729FBB27F00DB11D639FAA27F00D2A
:10372000B11DAA1F649F6627B00DA11D661F829F51
:103730002227B00DA11D621F739FB00DA11D621F36
:10374000839FA00D611D221F749F3327A00D611D53
:10375000231F849F600D211D822F762F6A2F112435
:103760009F5750409AF0F1F088234AF0EE0FFF1F68
:10377000BB1F661F771F881F91505040A9F79E3FBF
:10378000510580F00C94161B0C94611B5F3FE4F311
:10379000983ED4F3869577956795B795F795E79515
:1037A0009F5FC1F7FE2B880F911D9695879597F91E
:1037B00008950E94F21A880B990B0895EE0FFF1FCF
:1037C0000590F491E02D09940F931F93CF93DF930D
:1037D0008230910510F482E090E0E091CF03F09107
:1037E000D00330E020E0B0E0A0E0309799F421155C
:1037F000310509F44AC0281B390B24303105D8F5AE
:103800008A819B816115710589F1FB019383828314
:10381000FE0111C04081518102811381481759076F
:10382000E0F04817590799F4109761F012960C933D
:10383000129713961C933296CF01DF91CF911F916F
:103840000F9108950093CF031093D003F4CF211567
:10385000310551F04217530738F0A901DB019A01F5
:10386000BD01DF01F801C1CFEF01F9CF9093D00383
:103870008093CF03CDCFFE01E20FF31F819391938D
:103880002250310939832883D7CF2091CD0330913D
:10389000CE03232B41F420911B0130911C01309366
:1038A000CE032093CD032091190130911A012115E7
:1038B000310541F42DB73EB740911D0150911E01D5
:1038C000241B350BE091CD03F091CE03E217F307F3
:1038D000A0F42E1B3F0B2817390778F0AC014E5F80
:1038E0005F4F2417350748F04E0F5F1F5093CE03EC
:1038F0004093CD03819391939FCFF0E0E0E09CCF84
:10390000CF93DF930097E9F0FC0132971382128284
:10391000A091CF03B091D003ED0130E020E01097EB
:10392000A1F420813181820F931F2091CD0330912A
:10393000CE032817390709F061C0F093CE03E09356
:10394000CD03DF91CF910895EA01CE17DF07E8F5A7
:103950004A815B819E0141155105B1F7E901FB8365
:10396000EA8349915991C40FD51FEC17FD0761F403
:10397000808191810296840F951FE9019983888344
:10398000828193819B838A83F0E0E0E012968D919F
:103990009C9113970097B9F52D913C911197CD010A
:1039A0000296820F931F2091CD033091CE032817EA
:1039B000390739F6309751F51092D0031092CF03A2
:1039C000B093CE03A093CD03BCCFD383C2834081F9
:1039D0005181840F951FC817D90761F44E5F5F4F5F
:1039E00088819981480F591F518340838A819B8127
:1039F000938382832115310509F0B0CFF093D00372
:103A0000E093CF039ECFFD01DC01C0CF1382128271
:103A1000D7CFDC0101C06D9341505040E0F70895CD
:043A2000F894FFCF48
:103A24007777772E676F6F676C652E636F6D000015
:103A3400C0FF0ADEADBEEFFEED0000D10380000141
:103A4400005E000000000000001F05890EAD059413
:103A54000090007D10040B790D140C65085705DCEB
:103A640013D9081E115E10A605960592058E050051
:103A74000000005303B302E002A0031103EF0203AA
:103A840003000000004005C30E800E6B0E850FA7D7
:103A940010130BF70C4F14C110A0087E08C305CBFC
:103AA400051C15C005BE053505B405F410DA14CAA5
:103AB40010B0050000000027066E616E00696E6696
:103AC400006F7666000D0A0045746865726E657451
:103AD4002044656D6F00636F6E6E6563746564206A
:103AE400746F00474554202F7365617263683F719A
:103AF4003D61726475696E6F20485454502F312EA5
:103B04003100486F73743A207777772E676F6F6749
:103B14006C652E636F6D00436F6E6E656374696FC1
:103B24006E3A20636C6F736500636F6E6E656374C9
:103B3400696F6E206661696C656400636F6E6E65A3
:103B44006374696E6720746F0073657276657200C2
:103B54002E2E2E0067617350696E2056616C756558
:103B64003A2000666C616D6550696E2056616C7513
:103B7400653A2000646973636F6E6E656374696E81
:103B8400672E005265636569766564002062797406
:103B9400657320696E20002C2072617465203D20BD
:103BA40000206B62797465732F7365636F6E6400B4
:00000001FF
